{
  "_format": "hh-sol-artifact-1",
  "contractName": "QuizSession",
  "sourceName": "contracts/QuizSession.sol",
  "abi": [
    {
      "inputs": [],
      "stateMutability": "nonpayable",
      "type": "constructor"
    },
    {
      "anonymous": false,
      "inputs": [
        {
          "indexed": true,
          "internalType": "address",
          "name": "user",
          "type": "address"
        },
        {
          "indexed": false,
          "internalType": "uint8",
          "name": "answer",
          "type": "uint8"
        }
      ],
      "name": "AnswerSubmitted",
      "type": "event"
    },
    {
      "anonymous": false,
      "inputs": [
        {
          "indexed": false,
          "internalType": "address[]",
          "name": "winners",
          "type": "address[]"
        },
        {
          "indexed": false,
          "internalType": "uint256",
          "name": "prizePerWinner",
          "type": "uint256"
        }
      ],
      "name": "SessionEnded",
      "type": "event"
    },
    {
      "anonymous": false,
      "inputs": [
        {
          "indexed": false,
          "internalType": "string",
          "name": "question",
          "type": "string"
        },
        {
          "indexed": false,
          "internalType": "string[]",
          "name": "options",
          "type": "string[]"
        },
        {
          "indexed": false,
          "internalType": "uint8",
          "name": "correctOption",
          "type": "uint8"
        },
        {
          "indexed": false,
          "internalType": "uint256",
          "name": "fee",
          "type": "uint256"
        }
      ],
      "name": "SessionStarted",
      "type": "event"
    },
    {
      "inputs": [],
      "name": "active",
      "outputs": [
        {
          "internalType": "bool",
          "name": "",
          "type": "bool"
        }
      ],
      "stateMutability": "view",
      "type": "function"
    },
    {
      "inputs": [
        {
          "internalType": "uint256",
          "name": "",
          "type": "uint256"
        }
      ],
      "name": "addrs",
      "outputs": [
        {
          "internalType": "address",
          "name": "",
          "type": "address"
        }
      ],
      "stateMutability": "view",
      "type": "function"
    },
    {
      "inputs": [],
      "name": "contractReserve",
      "outputs": [
        {
          "internalType": "uint256",
          "name": "",
          "type": "uint256"
        }
      ],
      "stateMutability": "view",
      "type": "function"
    },
    {
      "inputs": [],
      "name": "correctOption",
      "outputs": [
        {
          "internalType": "uint8",
          "name": "",
          "type": "uint8"
        }
      ],
      "stateMutability": "view",
      "type": "function"
    },
    {
      "inputs": [],
      "name": "endSession",
      "outputs": [],
      "stateMutability": "nonpayable",
      "type": "function"
    },
    {
      "inputs": [],
      "name": "fee",
      "outputs": [
        {
          "internalType": "uint256",
          "name": "",
          "type": "uint256"
        }
      ],
      "stateMutability": "view",
      "type": "function"
    },
    {
      "inputs": [],
      "name": "getOptions",
      "outputs": [
        {
          "internalType": "string[]",
          "name": "",
          "type": "string[]"
        }
      ],
      "stateMutability": "view",
      "type": "function"
    },
    {
      "inputs": [
        {
          "internalType": "uint256",
          "name": "",
          "type": "uint256"
        }
      ],
      "name": "options",
      "outputs": [
        {
          "internalType": "string",
          "name": "",
          "type": "string"
        }
      ],
      "stateMutability": "view",
      "type": "function"
    },
    {
      "inputs": [],
      "name": "owner",
      "outputs": [
        {
          "internalType": "address",
          "name": "",
          "type": "address"
        }
      ],
      "stateMutability": "view",
      "type": "function"
    },
    {
      "inputs": [
        {
          "internalType": "address",
          "name": "",
          "type": "address"
        }
      ],
      "name": "participants",
      "outputs": [
        {
          "internalType": "uint8",
          "name": "answer",
          "type": "uint8"
        },
        {
          "internalType": "bool",
          "name": "participated",
          "type": "bool"
        }
      ],
      "stateMutability": "view",
      "type": "function"
    },
    {
      "inputs": [],
      "name": "prizePool",
      "outputs": [
        {
          "internalType": "uint256",
          "name": "",
          "type": "uint256"
        }
      ],
      "stateMutability": "view",
      "type": "function"
    },
    {
      "inputs": [],
      "name": "question",
      "outputs": [
        {
          "internalType": "string",
          "name": "",
          "type": "string"
        }
      ],
      "stateMutability": "view",
      "type": "function"
    },
    {
      "inputs": [],
      "name": "sessionParticipants",
      "outputs": [
        {
          "internalType": "address[]",
          "name": "",
          "type": "address[]"
        }
      ],
      "stateMutability": "view",
      "type": "function"
    },
    {
      "inputs": [
        {
          "internalType": "string",
          "name": "_question",
          "type": "string"
        },
        {
          "internalType": "string[]",
          "name": "_options",
          "type": "string[]"
        },
        {
          "internalType": "uint8",
          "name": "_correctOption",
          "type": "uint8"
        },
        {
          "internalType": "uint256",
          "name": "_fee",
          "type": "uint256"
        }
      ],
      "name": "startSession",
      "outputs": [],
      "stateMutability": "nonpayable",
      "type": "function"
    },
    {
      "inputs": [
        {
          "internalType": "uint8",
          "name": "_answer",
          "type": "uint8"
        }
      ],
      "name": "submitAnswer",
      "outputs": [],
      "stateMutability": "payable",
      "type": "function"
    },
    {
      "inputs": [
        {
          "internalType": "address payable",
          "name": "to",
          "type": "address"
        }
      ],
      "name": "withdrawReserve",
      "outputs": [],
      "stateMutability": "nonpayable",
      "type": "function"
    }
  ],
  "bytecode": "0x608060405234801561001057600080fd5b50336000806101000a81548173ffffffffffffffffffffffffffffffffffffffff021916908373ffffffffffffffffffffffffffffffffffffffff160217905550612327806100606000396000f3fe6080604052600436106100f35760003560e01c80638da5cb5b1161008a578063e8d8bbeb11610059578063e8d8bbeb1461031b578063ec4fd91414610346578063fd42630214610362578063fd5f06541461038d576100f3565b80638da5cb5b14610283578063cc2ee196146102ae578063ddca3f43146102d9578063e237a3fc14610304576100f3565b80633fad9ae0116100c65780633fad9ae0146101c7578063409e2205146101f257806352a387ab1461022f578063719ce73e14610258576100f3565b806302fb0c5e146100f857806309e69ede1461012357806330b9425814610161578063371eb6691461018a575b600080fd5b34801561010457600080fd5b5061010d6103b8565b60405161011a919061121e565b60405180910390f35b34801561012f57600080fd5b5061014a600480360381019061014591906112a1565b6103cb565b6040516101589291906112ea565b60405180910390f35b34801561016d57600080fd5b5061018860048036038101906101839190611430565b610409565b005b34801561019657600080fd5b506101b160048036038101906101ac91906114d7565b610668565b6040516101be9190611513565b60405180910390f35b3480156101d357600080fd5b506101dc6106a7565b6040516101e991906115be565b60405180910390f35b3480156101fe57600080fd5b50610219600480360381019061021491906114d7565b610735565b60405161022691906115be565b60405180910390f35b34801561023b57600080fd5b506102566004803603810190610251919061161e565b6107e1565b005b34801561026457600080fd5b5061026d610919565b60405161027a919061165a565b60405180910390f35b34801561028f57600080fd5b5061029861091f565b6040516102a59190611513565b60405180910390f35b3480156102ba57600080fd5b506102c3610943565b6040516102d09190611781565b60405180910390f35b3480156102e557600080fd5b506102ee610a1c565b6040516102fb919061165a565b60405180910390f35b34801561031057600080fd5b50610319610a22565b005b34801561032757600080fd5b50610330610e69565b60405161033d9190611861565b60405180910390f35b610360600480360381019061035b9190611883565b610ef7565b005b34801561036e57600080fd5b50610377611127565b604051610384919061165a565b60405180910390f35b34801561039957600080fd5b506103a261112d565b6040516103af91906118b0565b60405180910390f35b600460019054906101000a900460ff1681565b60056020528060005260406000206000915090508060000160009054906101000a900460ff16908060000160019054906101000a900460ff16905082565b60008054906101000a900473ffffffffffffffffffffffffffffffffffffffff1673ffffffffffffffffffffffffffffffffffffffff163373ffffffffffffffffffffffffffffffffffffffff1614610497576040517f08c379a000000000000000000000000000000000000000000000000000000000815260040161048e90611917565b60405180910390fd5b600460019054906101000a900460ff16156104e7576040517f08c379a00000000000000000000000000000000000000000000000000000000081526004016104de90611983565b60405180910390fd5b8160ff16848490501161052f576040517f08c379a0000000000000000000000000000000000000000000000000000000008152600401610526906119ef565b60405180910390fd5b858560029182610540929190611c55565b5081600460006101000a81548160ff021916908360ff160217905550806001819055506000600781905550600660006105799190611140565b6001600460016101000a81548160ff021916908315150217905550600360006105a29190611161565b60005b8484905081101561061e5760038585838181106105c5576105c4611d25565b5b90506020028101906105d79190611d63565b90918060018154018082558091505060019003906000526020600020016000909192909192909192909192509182610610929190611c55565b5080806001019150506105a5565b507fd4f682169e287212b0eba8a522d019b1f1abdc4e405d9c08639a7be1418cd12186868686868660405161065896959493929190611f44565b60405180910390a1505050505050565b6006818154811061067857600080fd5b906000526020600020016000915054906101000a900473ffffffffffffffffffffffffffffffffffffffff1681565b600280546106b490611a78565b80601f01602080910402602001604051908101604052809291908181526020018280546106e090611a78565b801561072d5780601f106107025761010080835404028352916020019161072d565b820191906000526020600020905b81548152906001019060200180831161071057829003601f168201915b505050505081565b6003818154811061074557600080fd5b90600052602060002001600091509050805461076090611a78565b80601f016020809104026020016040519081016040528092919081815260200182805461078c90611a78565b80156107d95780601f106107ae576101008083540402835291602001916107d9565b820191906000526020600020905b8154815290600101906020018083116107bc57829003601f168201915b505050505081565b60008054906101000a900473ffffffffffffffffffffffffffffffffffffffff1673ffffffffffffffffffffffffffffffffffffffff163373ffffffffffffffffffffffffffffffffffffffff161461086f576040517f08c379a000000000000000000000000000000000000000000000000000000000815260040161086690611917565b60405180910390fd5b600460019054906101000a900460ff16156108bf576040517f08c379a00000000000000000000000000000000000000000000000000000000081526004016108b690611983565b60405180910390fd5b6000600854905060006008819055508173ffffffffffffffffffffffffffffffffffffffff166108fc829081150290604051600060405180830381858888f19350505050158015610914573d6000803e3d6000fd5b505050565b60075481565b60008054906101000a900473ffffffffffffffffffffffffffffffffffffffff1681565b60606003805480602002602001604051908101604052809291908181526020016000905b82821015610a1357838290600052602060002001805461098690611a78565b80601f01602080910402602001604051908101604052809291908181526020018280546109b290611a78565b80156109ff5780601f106109d4576101008083540402835291602001916109ff565b820191906000526020600020905b8154815290600101906020018083116109e257829003601f168201915b505050505081526020019060010190610967565b50505050905090565b60015481565b60008054906101000a900473ffffffffffffffffffffffffffffffffffffffff1673ffffffffffffffffffffffffffffffffffffffff163373ffffffffffffffffffffffffffffffffffffffff1614610ab0576040517f08c379a0000000000000000000000000000000000000000000000000000000008152600401610aa790611917565b60405180910390fd5b600460019054906101000a900460ff16610aff576040517f08c379a0000000000000000000000000000000000000000000000000000000008152600401610af690611fe7565b60405180910390fd5b6000600460016101000a81548160ff02191690831515021790555060606000805b600680549050811015610bf857600060068281548110610b4357610b42611d25565b5b9060005260206000200160009054906101000a900473ffffffffffffffffffffffffffffffffffffffff169050600460009054906101000a900460ff1660ff16600560008373ffffffffffffffffffffffffffffffffffffffff1673ffffffffffffffffffffffffffffffffffffffff16815260200190815260200160002060000160009054906101000a900460ff1660ff1603610bea578280610be690612036565b9350505b508080600101915050610b20565b506000811115610e0f578067ffffffffffffffff811115610c1c57610c1b611a1a565b5b604051908082528060200260200182016040528015610c4a5781602001602082028036833780820191505090505b50915060008082600754610c5e91906120ad565b905060005b600680549050811015610dce57600060068281548110610c8657610c85611d25565b5b9060005260206000200160009054906101000a900473ffffffffffffffffffffffffffffffffffffffff169050600460009054906101000a900460ff1660ff16600560008373ffffffffffffffffffffffffffffffffffffffff1673ffffffffffffffffffffffffffffffffffffffff16815260200190815260200160002060000160009054906101000a900460ff1660ff1603610dc0578073ffffffffffffffffffffffffffffffffffffffff166108fc849081150290604051600060405180830381858888f19350505050158015610d64573d6000803e3d6000fd5b5080868580610d7290612036565b965081518110610d8557610d84611d25565b5b602002602001019073ffffffffffffffffffffffffffffffffffffffff16908173ffffffffffffffffffffffffffffffffffffffff16815250505b508080600101915050610c63565b507f64df36acc3c0fe7e4c97a9c60c74d8b609cbf5019cabfb3292bfd5722f3625e68482604051610e009291906120de565b60405180910390a15050610e65565b60075460086000828254610e23919061210e565b925050819055507f64df36acc3c0fe7e4c97a9c60c74d8b609cbf5019cabfb3292bfd5722f3625e6826000604051610e5c92919061217d565b60405180910390a15b5050565b60606006805480602002602001604051908101604052809291908181526020018280548015610eed57602002820191906000526020600020905b8160009054906101000a900473ffffffffffffffffffffffffffffffffffffffff1673ffffffffffffffffffffffffffffffffffffffff1681526020019060010190808311610ea3575b5050505050905090565b600460019054906101000a900460ff16610f46576040517f08c379a0000000000000000000000000000000000000000000000000000000008152600401610f3d906121f9565b60405180910390fd5b6001543414610f8a576040517f08c379a0000000000000000000000000000000000000000000000000000000008152600401610f8190612265565b60405180910390fd5b6000600560003373ffffffffffffffffffffffffffffffffffffffff1673ffffffffffffffffffffffffffffffffffffffff16815260200190815260200160002090508060000160019054906101000a900460ff161561101f576040517f08c379a0000000000000000000000000000000000000000000000000000000008152600401611016906122d1565b60405180910390fd5b818160000160006101000a81548160ff021916908360ff16021790555060018160000160016101000a81548160ff0219169083151502179055506006339080600181540180825580915050600190039060005260206000200160009091909190916101000a81548173ffffffffffffffffffffffffffffffffffffffff021916908373ffffffffffffffffffffffffffffffffffffffff16021790555034600760008282546110ce919061210e565b925050819055503373ffffffffffffffffffffffffffffffffffffffff167fe7196468fd477a50daff6e76d08a4010b46063f232037bff47907b7c98aaa01e8360405161111b91906118b0565b60405180910390a25050565b60085481565b600460009054906101000a900460ff1681565b508054600082559060005260206000209081019061115e9190611182565b50565b508054600082559060005260206000209081019061117f919061119f565b50565b5b8082111561119b576000816000905550600101611183565b5090565b5b808211156111bf57600081816111b691906111c3565b506001016111a0565b5090565b5080546111cf90611a78565b6000825580601f106111e15750611200565b601f0160209004906000526020600020908101906111ff9190611182565b5b50565b60008115159050919050565b61121881611203565b82525050565b6000602082019050611233600083018461120f565b92915050565b600080fd5b600080fd5b600073ffffffffffffffffffffffffffffffffffffffff82169050919050565b600061126e82611243565b9050919050565b61127e81611263565b811461128957600080fd5b50565b60008135905061129b81611275565b92915050565b6000602082840312156112b7576112b6611239565b5b60006112c58482850161128c565b91505092915050565b600060ff82169050919050565b6112e4816112ce565b82525050565b60006040820190506112ff60008301856112db565b61130c602083018461120f565b9392505050565b600080fd5b600080fd5b600080fd5b60008083601f84011261133857611337611313565b5b8235905067ffffffffffffffff81111561135557611354611318565b5b6020830191508360018202830111156113715761137061131d565b5b9250929050565b60008083601f84011261138e5761138d611313565b5b8235905067ffffffffffffffff8111156113ab576113aa611318565b5b6020830191508360208202830111156113c7576113c661131d565b5b9250929050565b6113d7816112ce565b81146113e257600080fd5b50565b6000813590506113f4816113ce565b92915050565b6000819050919050565b61140d816113fa565b811461141857600080fd5b50565b60008135905061142a81611404565b92915050565b6000806000806000806080878903121561144d5761144c611239565b5b600087013567ffffffffffffffff81111561146b5761146a61123e565b5b61147789828a01611322565b9650965050602087013567ffffffffffffffff81111561149a5761149961123e565b5b6114a689828a01611378565b945094505060406114b989828a016113e5565b92505060606114ca89828a0161141b565b9150509295509295509295565b6000602082840312156114ed576114ec611239565b5b60006114fb8482850161141b565b91505092915050565b61150d81611263565b82525050565b60006020820190506115286000830184611504565b92915050565b600081519050919050565b600082825260208201905092915050565b60005b8381101561156857808201518184015260208101905061154d565b60008484015250505050565b6000601f19601f8301169050919050565b60006115908261152e565b61159a8185611539565b93506115aa81856020860161154a565b6115b381611574565b840191505092915050565b600060208201905081810360008301526115d88184611585565b905092915050565b60006115eb82611243565b9050919050565b6115fb816115e0565b811461160657600080fd5b50565b600081359050611618816115f2565b92915050565b60006020828403121561163457611633611239565b5b600061164284828501611609565b91505092915050565b611654816113fa565b82525050565b600060208201905061166f600083018461164b565b92915050565b600081519050919050565b600082825260208201905092915050565b6000819050602082019050919050565b600082825260208201905092915050565b60006116bd8261152e565b6116c781856116a1565b93506116d781856020860161154a565b6116e081611574565b840191505092915050565b60006116f783836116b2565b905092915050565b6000602082019050919050565b600061171782611675565b6117218185611680565b93508360208202850161173385611691565b8060005b8581101561176f578484038952815161175085826116eb565b945061175b836116ff565b925060208a01995050600181019050611737565b50829750879550505050505092915050565b6000602082019050818103600083015261179b818461170c565b905092915050565b600081519050919050565b600082825260208201905092915050565b6000819050602082019050919050565b6117d881611263565b82525050565b60006117ea83836117cf565b60208301905092915050565b6000602082019050919050565b600061180e826117a3565b61181881856117ae565b9350611823836117bf565b8060005b8381101561185457815161183b88826117de565b9750611846836117f6565b925050600181019050611827565b5085935050505092915050565b6000602082019050818103600083015261187b8184611803565b905092915050565b60006020828403121561189957611898611239565b5b60006118a7848285016113e5565b91505092915050565b60006020820190506118c560008301846112db565b92915050565b7f4f6e6c79206f776e657200000000000000000000000000000000000000000000600082015250565b6000611901600a83611539565b915061190c826118cb565b602082019050919050565b60006020820190508181036000830152611930816118f4565b9050919050565b7f53657373696f6e20616374697665000000000000000000000000000000000000600082015250565b600061196d600e83611539565b915061197882611937565b602082019050919050565b6000602082019050818103600083015261199c81611960565b9050919050565b7f496e76616c696420636f72726563742069647800000000000000000000000000600082015250565b60006119d9601383611539565b91506119e4826119a3565b602082019050919050565b60006020820190508181036000830152611a08816119cc565b9050919050565b600082905092915050565b7f4e487b7100000000000000000000000000000000000000000000000000000000600052604160045260246000fd5b7f4e487b7100000000000000000000000000000000000000000000000000000000600052602260045260246000fd5b60006002820490506001821680611a9057607f821691505b602082108103611aa357611aa2611a49565b5b50919050565b60008190508160005260206000209050919050565b60006020601f8301049050919050565b600082821b905092915050565b600060088302611b0b7fffffffffffffffffffffffffffffffffffffffffffffffffffffffffffffffff82611ace565b611b158683611ace565b95508019841693508086168417925050509392505050565b6000819050919050565b6000611b52611b4d611b48846113fa565b611b2d565b6113fa565b9050919050565b6000819050919050565b611b6c83611b37565b611b80611b7882611b59565b848454611adb565b825550505050565b600090565b611b95611b88565b611ba0818484611b63565b505050565b5b81811015611bc457611bb9600082611b8d565b600181019050611ba6565b5050565b601f821115611c0957611bda81611aa9565b611be384611abe565b81016020851015611bf2578190505b611c06611bfe85611abe565b830182611ba5565b50505b505050565b600082821c905092915050565b6000611c2c60001984600802611c0e565b1980831691505092915050565b6000611c458383611c1b565b9150826002028217905092915050565b611c5f8383611a0f565b67ffffffffffffffff811115611c7857611c77611a1a565b5b611c828254611a78565b611c8d828285611bc8565b6000601f831160018114611cbc5760008415611caa578287013590505b611cb48582611c39565b865550611d1c565b601f198416611cca86611aa9565b60005b82811015611cf257848901358255600182019150602085019450602081019050611ccd565b86831015611d0f5784890135611d0b601f891682611c1b565b8355505b6001600288020188555050505b50505050505050565b7f4e487b7100000000000000000000000000000000000000000000000000000000600052603260045260246000fd5b600080fd5b600080fd5b600080fd5b60008083356001602003843603038112611d8057611d7f611d54565b5b80840192508235915067ffffffffffffffff821115611da257611da1611d59565b5b602083019250600182023603831315611dbe57611dbd611d5e565b5b509250929050565b82818337600083830152505050565b6000611de18385611539565b9350611dee838584611dc6565b611df783611574565b840190509392505050565b6000819050919050565b6000611e1883856116a1565b9350611e25838584611dc6565b611e2e83611574565b840190509392505050565b6000611e46848484611e0c565b90509392505050565b600080fd5b600080fd5b600080fd5b60008083356001602003843603038112611e7b57611e7a611e59565b5b83810192508235915060208301925067ffffffffffffffff821115611ea357611ea2611e4f565b5b600182023603831315611eb957611eb8611e54565b5b509250929050565b6000602082019050919050565b6000611eda8385611680565b935083602084028501611eec84611e02565b8060005b87811015611f32578484038952611f078284611e5e565b611f12868284611e39565b9550611f1d84611ec1565b935060208b019a505050600181019050611ef0565b50829750879450505050509392505050565b60006080820190508181036000830152611f5f81888a611dd5565b90508181036020830152611f74818688611ece565b9050611f8360408301856112db565b611f90606083018461164b565b979650505050505050565b7f4e6f2073657373696f6e20616374697665000000000000000000000000000000600082015250565b6000611fd1601183611539565b9150611fdc82611f9b565b602082019050919050565b6000602082019050818103600083015261200081611fc4565b9050919050565b7f4e487b7100000000000000000000000000000000000000000000000000000000600052601160045260246000fd5b6000612041826113fa565b91507fffffffffffffffffffffffffffffffffffffffffffffffffffffffffffffffff820361207357612072612007565b5b600182019050919050565b7f4e487b7100000000000000000000000000000000000000000000000000000000600052601260045260246000fd5b60006120b8826113fa565b91506120c3836113fa565b9250826120d3576120d261207e565b5b828204905092915050565b600060408201905081810360008301526120f88185611803565b9050612107602083018461164b565b9392505050565b6000612119826113fa565b9150612124836113fa565b925082820190508082111561213c5761213b612007565b5b92915050565b6000819050919050565b600061216761216261215d84612142565b611b2d565b6113fa565b9050919050565b6121778161214c565b82525050565b600060408201905081810360008301526121978185611803565b90506121a6602083018461216e565b9392505050565b7f4e6f206163746976652073657373696f6e000000000000000000000000000000600082015250565b60006121e3601183611539565b91506121ee826121ad565b602082019050919050565b60006020820190508181036000830152612212816121d6565b9050919050565b7f496e636f72726563742066656500000000000000000000000000000000000000600082015250565b600061224f600d83611539565b915061225a82612219565b602082019050919050565b6000602082019050818103600083015261227e81612242565b9050919050565b7f416c726561647920616e73776572656400000000000000000000000000000000600082015250565b60006122bb601083611539565b91506122c682612285565b602082019050919050565b600060208201905081810360008301526122ea816122ae565b905091905056fea26469706673582212209c841afb2eed791b3000d73b9db113e66bb82fd26c59884e6ddb67d9ab3f467364736f6c63430008160033",
  "linkReferences": {},
  "deployedLinkReferences": {}
}